{
  "contractName": "StarNotary",
  "abi": [
    {
      "constant": true,
      "inputs": [
        {
          "name": "interfaceId",
          "type": "bytes4"
        }
      ],
      "name": "supportsInterface",
      "outputs": [
        {
          "name": "",
          "type": "bool"
        }
      ],
      "payable": false,
      "stateMutability": "view",
      "type": "function"
    },
    {
      "constant": true,
      "inputs": [
        {
          "name": "",
          "type": "uint256"
        }
      ],
      "name": "starsForSale",
      "outputs": [
        {
          "name": "",
          "type": "uint256"
        }
      ],
      "payable": false,
      "stateMutability": "view",
      "type": "function"
    },
    {
      "constant": true,
      "inputs": [
        {
          "name": "tokenId",
          "type": "uint256"
        }
      ],
      "name": "getApproved",
      "outputs": [
        {
          "name": "",
          "type": "address"
        }
      ],
      "payable": false,
      "stateMutability": "view",
      "type": "function"
    },
    {
      "constant": false,
      "inputs": [
        {
          "name": "to",
          "type": "address"
        },
        {
          "name": "tokenId",
          "type": "uint256"
        }
      ],
      "name": "approve",
      "outputs": [],
      "payable": false,
      "stateMutability": "nonpayable",
      "type": "function"
    },
    {
      "constant": true,
      "inputs": [
        {
          "name": "",
          "type": "uint256"
        }
      ],
      "name": "tokenIdToStarInfo",
      "outputs": [
        {
          "name": "name",
          "type": "string"
        },
        {
          "name": "starStory",
          "type": "string"
        },
        {
          "name": "ra",
          "type": "string"
        },
        {
          "name": "dec",
          "type": "string"
        },
        {
          "name": "mag",
          "type": "string"
        }
      ],
      "payable": false,
      "stateMutability": "view",
      "type": "function"
    },
    {
      "constant": false,
      "inputs": [
        {
          "name": "from",
          "type": "address"
        },
        {
          "name": "to",
          "type": "address"
        },
        {
          "name": "tokenId",
          "type": "uint256"
        }
      ],
      "name": "transferFrom",
      "outputs": [],
      "payable": false,
      "stateMutability": "nonpayable",
      "type": "function"
    },
    {
      "constant": false,
      "inputs": [
        {
          "name": "from",
          "type": "address"
        },
        {
          "name": "to",
          "type": "address"
        },
        {
          "name": "tokenId",
          "type": "uint256"
        }
      ],
      "name": "safeTransferFrom",
      "outputs": [],
      "payable": false,
      "stateMutability": "nonpayable",
      "type": "function"
    },
    {
      "constant": true,
      "inputs": [
        {
          "name": "",
          "type": "bytes32"
        }
      ],
      "name": "uniqueStars",
      "outputs": [
        {
          "name": "",
          "type": "bool"
        }
      ],
      "payable": false,
      "stateMutability": "view",
      "type": "function"
    },
    {
      "constant": true,
      "inputs": [
        {
          "name": "tokenId",
          "type": "uint256"
        }
      ],
      "name": "ownerOf",
      "outputs": [
        {
          "name": "",
          "type": "address"
        }
      ],
      "payable": false,
      "stateMutability": "view",
      "type": "function"
    },
    {
      "constant": true,
      "inputs": [
        {
          "name": "owner",
          "type": "address"
        }
      ],
      "name": "balanceOf",
      "outputs": [
        {
          "name": "",
          "type": "uint256"
        }
      ],
      "payable": false,
      "stateMutability": "view",
      "type": "function"
    },
    {
      "constant": false,
      "inputs": [
        {
          "name": "to",
          "type": "address"
        },
        {
          "name": "approved",
          "type": "bool"
        }
      ],
      "name": "setApprovalForAll",
      "outputs": [],
      "payable": false,
      "stateMutability": "nonpayable",
      "type": "function"
    },
    {
      "constant": false,
      "inputs": [
        {
          "name": "from",
          "type": "address"
        },
        {
          "name": "to",
          "type": "address"
        },
        {
          "name": "tokenId",
          "type": "uint256"
        },
        {
          "name": "_data",
          "type": "bytes"
        }
      ],
      "name": "safeTransferFrom",
      "outputs": [],
      "payable": false,
      "stateMutability": "nonpayable",
      "type": "function"
    },
    {
      "constant": true,
      "inputs": [
        {
          "name": "owner",
          "type": "address"
        },
        {
          "name": "operator",
          "type": "address"
        }
      ],
      "name": "isApprovedForAll",
      "outputs": [
        {
          "name": "",
          "type": "bool"
        }
      ],
      "payable": false,
      "stateMutability": "view",
      "type": "function"
    },
    {
      "anonymous": false,
      "inputs": [
        {
          "indexed": true,
          "name": "from",
          "type": "address"
        },
        {
          "indexed": true,
          "name": "to",
          "type": "address"
        },
        {
          "indexed": true,
          "name": "tokenId",
          "type": "uint256"
        }
      ],
      "name": "Transfer",
      "type": "event"
    },
    {
      "anonymous": false,
      "inputs": [
        {
          "indexed": true,
          "name": "owner",
          "type": "address"
        },
        {
          "indexed": true,
          "name": "approved",
          "type": "address"
        },
        {
          "indexed": true,
          "name": "tokenId",
          "type": "uint256"
        }
      ],
      "name": "Approval",
      "type": "event"
    },
    {
      "anonymous": false,
      "inputs": [
        {
          "indexed": true,
          "name": "owner",
          "type": "address"
        },
        {
          "indexed": true,
          "name": "operator",
          "type": "address"
        },
        {
          "indexed": false,
          "name": "approved",
          "type": "bool"
        }
      ],
      "name": "ApprovalForAll",
      "type": "event"
    },
    {
      "constant": false,
      "inputs": [
        {
          "name": "_name",
          "type": "string"
        },
        {
          "name": "_starStory",
          "type": "string"
        },
        {
          "name": "_ra",
          "type": "string"
        },
        {
          "name": "_dec",
          "type": "string"
        },
        {
          "name": "_mag",
          "type": "string"
        },
        {
          "name": "_tokenId",
          "type": "uint256"
        }
      ],
      "name": "createStar",
      "outputs": [],
      "payable": false,
      "stateMutability": "nonpayable",
      "type": "function"
    },
    {
      "constant": true,
      "inputs": [
        {
          "name": "_ra",
          "type": "string"
        },
        {
          "name": "_dec",
          "type": "string"
        },
        {
          "name": "_mag",
          "type": "string"
        }
      ],
      "name": "checkIfStarExists",
      "outputs": [
        {
          "name": "",
          "type": "bool"
        }
      ],
      "payable": false,
      "stateMutability": "view",
      "type": "function"
    },
    {
      "constant": false,
      "inputs": [
        {
          "name": "_tokenId",
          "type": "uint256"
        },
        {
          "name": "_price",
          "type": "uint256"
        }
      ],
      "name": "putStarUpForSale",
      "outputs": [],
      "payable": false,
      "stateMutability": "nonpayable",
      "type": "function"
    },
    {
      "constant": false,
      "inputs": [
        {
          "name": "_tokenId",
          "type": "uint256"
        }
      ],
      "name": "buyStar",
      "outputs": [],
      "payable": true,
      "stateMutability": "payable",
      "type": "function"
    }
  ],
  "bytecode": "0x6080604052620000416301ffc9a77c01000000000000000000000000000000000000000000000000000000000262000084640100000000026401000000009004565b6200007e6380ac58cd7c01000000000000000000000000000000000000000000000000000000000262000084640100000000026401000000009004565b62000142565b63ffffffff7c010000000000000000000000000000000000000000000000000000000002817bffffffffffffffffffffffffffffffffffffffffffffffffffffffff191614151515620000d657600080fd5b6001600080837bffffffffffffffffffffffffffffffffffffffffffffffffffffffff19167bffffffffffffffffffffffffffffffffffffffffffffffffffffffff1916815260200190815260200160002060006101000a81548160ff02191690831515021790555050565b6126d680620001526000396000f3006080604052600436106100f1576000357c0100000000000000000000000000000000000000000000000000000000900463ffffffff16806301ffc9a7146100f65780630564b1301461015a578063081812fc1461019b578063095ea7b3146102085780631967fd981461025557806323b872dd146104ab5780632b6e25f5146105185780632f1c34ef14610625578063316a43611461064557806342842e0e1461067c5780634e1e3ae4146106e95780636352211e1461073257806370a082311461079f578063a22cb465146107f6578063b250ced014610845578063b88d4fde146109d0578063e985e9c514610a83575b600080fd5b34801561010257600080fd5b5061014060048036038101908080357bffffffffffffffffffffffffffffffffffffffffffffffffffffffff19169060200190929190505050610afe565b604051808215151515815260200191505060405180910390f35b34801561016657600080fd5b5061018560048036038101908080359060200190929190505050610b65565b6040518082815260200191505060405180910390f35b3480156101a757600080fd5b506101c660048036038101908080359060200190929190505050610b7d565b604051808273ffffffffffffffffffffffffffffffffffffffff1673ffffffffffffffffffffffffffffffffffffffff16815260200191505060405180910390f35b34801561021457600080fd5b50610253600480360381019080803573ffffffffffffffffffffffffffffffffffffffff16906020019092919080359060200190929190505050610bce565b005b34801561026157600080fd5b5061028060048036038101908080359060200190929190505050610d13565b60405180806020018060200180602001806020018060200186810386528b818151815260200191508051906020019080838360005b838110156102d05780820151818401526020810190506102b5565b50505050905090810190601f1680156102fd5780820380516001836020036101000a031916815260200191505b5086810385528a818151815260200191508051906020019080838360005b8381101561033657808201518184015260208101905061031b565b50505050905090810190601f1680156103635780820380516001836020036101000a031916815260200191505b50868103845289818151815260200191508051906020019080838360005b8381101561039c578082015181840152602081019050610381565b50505050905090810190601f1680156103c95780820380516001836020036101000a031916815260200191505b50868103835288818151815260200191508051906020019080838360005b838110156104025780820151818401526020810190506103e7565b50505050905090810190601f16801561042f5780820380516001836020036101000a031916815260200191505b50868103825287818151815260200191508051906020019080838360005b8381101561046857808201518184015260208101905061044d565b50505050905090810190601f1680156104955780820380516001836020036101000a031916815260200191505b509a505050505050505050505060405180910390f35b3480156104b757600080fd5b50610516600480360381019080803573ffffffffffffffffffffffffffffffffffffffff169060200190929190803573ffffffffffffffffffffffffffffffffffffffff16906020019092919080359060200190929190505050611041565b005b34801561052457600080fd5b5061060b600480360381019080803590602001908201803590602001908080601f0160208091040260200160405190810160405280939291908181526020018383808284378201915050505050509192919290803590602001908201803590602001908080601f0160208091040260200160405190810160405280939291908181526020018383808284378201915050505050509192919290803590602001908201803590602001908080601f0160208091040260200160405190810160405280939291908181526020018383808284378201915050505050509192919290505050611110565b604051808215151515815260200191505060405180910390f35b610643600480360381019080803590602001909291905050506112c8565b005b34801561065157600080fd5b5061067a6004803603810190808035906020019092919080359060200190929190505050611470565b005b34801561068857600080fd5b506106e7600480360381019080803573ffffffffffffffffffffffffffffffffffffffff169060200190929190803573ffffffffffffffffffffffffffffffffffffffff1690602001909291908035906020019092919050505061156f565b005b3480156106f557600080fd5b506107186004803603810190808035600019169060200190929190505050611590565b604051808215151515815260200191505060405180910390f35b34801561073e57600080fd5b5061075d600480360381019080803590602001909291905050506115b0565b604051808273ffffffffffffffffffffffffffffffffffffffff1673ffffffffffffffffffffffffffffffffffffffff16815260200191505060405180910390f35b3480156107ab57600080fd5b506107e0600480360381019080803573ffffffffffffffffffffffffffffffffffffffff16906020019092919050505061162e565b6040518082815260200191505060405180910390f35b34801561080257600080fd5b50610843600480360381019080803573ffffffffffffffffffffffffffffffffffffffff1690602001909291908035151590602001909291905050506116b2565b005b34801561085157600080fd5b506109ce600480360381019080803590602001908201803590602001908080601f0160208091040260200160405190810160405280939291908181526020018383808284378201915050505050509192919290803590602001908201803590602001908080601f0160208091040260200160405190810160405280939291908181526020018383808284378201915050505050509192919290803590602001908201803590602001908080601f0160208091040260200160405190810160405280939291908181526020018383808284378201915050505050509192919290803590602001908201803590602001908080601f0160208091040260200160405190810160405280939291908181526020018383808284378201915050505050509192919290803590602001908201803590602001908080601f0160208091040260200160405190810160405280939291908181526020018383808284378201915050505050509192919290803590602001909291905050506117ee565b005b3480156109dc57600080fd5b50610a81600480360381019080803573ffffffffffffffffffffffffffffffffffffffff169060200190929190803573ffffffffffffffffffffffffffffffffffffffff16906020019092919080359060200190929190803590602001908201803590602001908080601f0160208091040260200160405190810160405280939291908181526020018383808284378201915050505050509192919290505050611d69565b005b348015610a8f57600080fd5b50610ae4600480360381019080803573ffffffffffffffffffffffffffffffffffffffff169060200190929190803573ffffffffffffffffffffffffffffffffffffffff169060200190929190505050611d91565b604051808215151515815260200191505060405180910390f35b6000806000837bffffffffffffffffffffffffffffffffffffffffffffffffffffffff19167bffffffffffffffffffffffffffffffffffffffffffffffffffffffff1916815260200190815260200160002060009054906101000a900460ff169050919050565b60076020528060005260406000206000915090505481565b6000610b8882611e25565b1515610b9357600080fd5b6002600083815260200190815260200160002060009054906101000a900473ffffffffffffffffffffffffffffffffffffffff169050919050565b6000610bd9826115b0565b90508073ffffffffffffffffffffffffffffffffffffffff168373ffffffffffffffffffffffffffffffffffffffff1614151515610c1657600080fd5b8073ffffffffffffffffffffffffffffffffffffffff163373ffffffffffffffffffffffffffffffffffffffff161480610c565750610c558133611d91565b5b1515610c6157600080fd5b826002600084815260200190815260200160002060006101000a81548173ffffffffffffffffffffffffffffffffffffffff021916908373ffffffffffffffffffffffffffffffffffffffff160217905550818373ffffffffffffffffffffffffffffffffffffffff168273ffffffffffffffffffffffffffffffffffffffff167f8c5be1e5ebec7d5bd14f71427d1e84f3dd0314c0f7b2291e5b200ac8c7c3b92560405160405180910390a4505050565b6005602052806000526040600020600091509050806000018054600181600116156101000203166002900480601f016020809104026020016040519081016040528092919081815260200182805460018160011615610100020316600290048015610dbf5780601f10610d9457610100808354040283529160200191610dbf565b820191906000526020600020905b815481529060010190602001808311610da257829003601f168201915b505050505090806001018054600181600116156101000203166002900480601f016020809104026020016040519081016040528092919081815260200182805460018160011615610100020316600290048015610e5d5780601f10610e3257610100808354040283529160200191610e5d565b820191906000526020600020905b815481529060010190602001808311610e4057829003601f168201915b505050505090806002018054600181600116156101000203166002900480601f016020809104026020016040519081016040528092919081815260200182805460018160011615610100020316600290048015610efb5780601f10610ed057610100808354040283529160200191610efb565b820191906000526020600020905b815481529060010190602001808311610ede57829003601f168201915b505050505090806003018054600181600116156101000203166002900480601f016020809104026020016040519081016040528092919081815260200182805460018160011615610100020316600290048015610f995780601f10610f6e57610100808354040283529160200191610f99565b820191906000526020600020905b815481529060010190602001808311610f7c57829003601f168201915b505050505090806004018054600181600116156101000203166002900480601f0160208091040260200160405190810160405280929190818152602001828054600181600116156101000203166002900480156110375780601f1061100c57610100808354040283529160200191611037565b820191906000526020600020905b81548152906001019060200180831161101a57829003601f168201915b5050505050905085565b61104b3382611e97565b151561105657600080fd5b600073ffffffffffffffffffffffffffffffffffffffff168273ffffffffffffffffffffffffffffffffffffffff161415151561109257600080fd5b61109c8382611f2c565b6110a6838261202f565b6110b0828261215e565b808273ffffffffffffffffffffffffffffffffffffffff168473ffffffffffffffffffffffffffffffffffffffff167fddf252ad1be2c89b69c2b068fc378daa952ba7f163c4a11628f55a4df523b3ef60405160405180910390a4505050565b6000808484846040516020018084805190602001908083835b60208310151561114e5780518252602082019150602081019050602083039250611129565b6001836020036101000a03801982511681845116808217855250505050505090500183805190602001908083835b6020831015156111a1578051825260208201915060208101905060208303925061117c565b6001836020036101000a03801982511681845116808217855250505050505090500182805190602001908083835b6020831015156111f457805182526020820191506020810190506020830392506111cf565b6001836020036101000a03801982511681845116808217855250505050505090500193505050506040516020818303038152906040526040518082805190602001908083835b60208310151561125f578051825260208201915060208101905060208303925061123a565b6001836020036101000a038019825116818451168082178552505050505050905001915050604051809103902090506001151560066000836000191660001916815260200190815260200160002060009054906101000a900460ff161515149150509392505050565b600080600060076000858152602001908152602001600020541115156112ed57600080fd5b600760008481526020019081526020016000205491503073ffffffffffffffffffffffffffffffffffffffff16636352211e846040518263ffffffff167c010000000000000000000000000000000000000000000000000000000002815260040180828152602001915050602060405180830381600087803b15801561137257600080fd5b505af1158015611386573d6000803e3d6000fd5b505050506040513d602081101561139c57600080fd5b810190808051906020019092919050505090508134101515156113be57600080fd5b6113c8818461202f565b6113d2338461215e565b8073ffffffffffffffffffffffffffffffffffffffff166108fc839081150290604051600060405180830381858888f19350505050158015611418573d6000803e3d6000fd5b508134111561146b573373ffffffffffffffffffffffffffffffffffffffff166108fc8334039081150290604051600060405180830381858888f19350505050158015611469573d6000803e3d6000fd5b505b505050565b3373ffffffffffffffffffffffffffffffffffffffff163073ffffffffffffffffffffffffffffffffffffffff16636352211e846040518263ffffffff167c010000000000000000000000000000000000000000000000000000000002815260040180828152602001915050602060405180830381600087803b1580156114f657600080fd5b505af115801561150a573d6000803e3d6000fd5b505050506040513d602081101561152057600080fd5b810190808051906020019092919050505073ffffffffffffffffffffffffffffffffffffffff1614151561155357600080fd5b8060076000848152602001908152602001600020819055505050565b61158b8383836020604051908101604052806000815250611d69565b505050565b60066020528060005260406000206000915054906101000a900460ff1681565b6000806001600084815260200190815260200160002060009054906101000a900473ffffffffffffffffffffffffffffffffffffffff169050600073ffffffffffffffffffffffffffffffffffffffff168173ffffffffffffffffffffffffffffffffffffffff161415151561162557600080fd5b80915050919050565b60008073ffffffffffffffffffffffffffffffffffffffff168273ffffffffffffffffffffffffffffffffffffffff161415151561166b57600080fd5b600360008373ffffffffffffffffffffffffffffffffffffffff1673ffffffffffffffffffffffffffffffffffffffff168152602001908152602001600020549050919050565b3373ffffffffffffffffffffffffffffffffffffffff168273ffffffffffffffffffffffffffffffffffffffff16141515156116ed57600080fd5b80600460003373ffffffffffffffffffffffffffffffffffffffff1673ffffffffffffffffffffffffffffffffffffffff16815260200190815260200160002060008473ffffffffffffffffffffffffffffffffffffffff1673ffffffffffffffffffffffffffffffffffffffff16815260200190815260200160002060006101000a81548160ff0219169083151502179055508173ffffffffffffffffffffffffffffffffffffffff163373ffffffffffffffffffffffffffffffffffffffff167f17307eab39ab6107e8899845ad3d59bd9653f200f220920489ca2b5937696c3183604051808215151515815260200191505060405180910390a35050565b6117f66125d5565b6000808851111515611870576040517f08c379a00000000000000000000000000000000000000000000000000000000081526004018080602001828103825260138152602001807f52657175697265642073746172206e616d652e0000000000000000000000000081525060200191505060405180910390fd5b600087511115156118e9576040517f08c379a00000000000000000000000000000000000000000000000000000000081526004018080602001828103825260148152602001807f526571756972656420737461722073746f72792e00000000000000000000000081525060200191505060405180910390fd5b60008651111515611962576040517f08c379a00000000000000000000000000000000000000000000000000000000081526004018080602001828103825260118152602001807f526571756972656420737461722072612e00000000000000000000000000000081525060200191505060405180910390fd5b600085511115156119db576040517f08c379a00000000000000000000000000000000000000000000000000000000081526004018080602001828103825260128152602001807f52657175697265642073746172206465632e000000000000000000000000000081525060200191505060405180910390fd5b60008451111515611a54576040517f08c379a00000000000000000000000000000000000000000000000000000000081526004018080602001828103825260128152602001807f52657175697265642073746172206d61672e000000000000000000000000000081525060200191505060405180910390fd5b611a5f868686611110565b151515611ad4576040517f08c379a00000000000000000000000000000000000000000000000000000000081526004018080602001828103825260198152602001807f54686973207374617220616c7265616479206578697374732e0000000000000081525060200191505060405180910390fd5b60a06040519081016040528089815260200188815260200187815260200186815260200185815250915081600560008581526020019081526020016000206000820151816000019080519060200190611b2e929190612605565b506020820151816001019080519060200190611b4b929190612605565b506040820151816002019080519060200190611b68929190612605565b506060820151816003019080519060200190611b85929190612605565b506080820151816004019080519060200190611ba2929190612605565b509050508585856040516020018084805190602001908083835b602083101515611be15780518252602082019150602081019050602083039250611bbc565b6001836020036101000a03801982511681845116808217855250505050505090500183805190602001908083835b602083101515611c345780518252602082019150602081019050602083039250611c0f565b6001836020036101000a03801982511681845116808217855250505050505090500182805190602001908083835b602083101515611c875780518252602082019150602081019050602083039250611c62565b6001836020036101000a03801982511681845116808217855250505050505090500193505050506040516020818303038152906040526040518082805190602001908083835b602083101515611cf25780518252602082019150602081019050602083039250611ccd565b6001836020036101000a03801982511681845116808217855250505050505090500191505060405180910390209050600160066000836000191660001916815260200190815260200160002060006101000a81548160ff021916908315150217905550611d5f33846122b8565b5050505050505050565b611d74848484611041565b611d808484848461235e565b1515611d8b57600080fd5b50505050565b6000600460008473ffffffffffffffffffffffffffffffffffffffff1673ffffffffffffffffffffffffffffffffffffffff16815260200190815260200160002060008373ffffffffffffffffffffffffffffffffffffffff1673ffffffffffffffffffffffffffffffffffffffff16815260200190815260200160002060009054906101000a900460ff16905092915050565b6000806001600084815260200190815260200160002060009054906101000a900473ffffffffffffffffffffffffffffffffffffffff169050600073ffffffffffffffffffffffffffffffffffffffff168173ffffffffffffffffffffffffffffffffffffffff161415915050919050565b600080611ea3836115b0565b90508073ffffffffffffffffffffffffffffffffffffffff168473ffffffffffffffffffffffffffffffffffffffff161480611f1257508373ffffffffffffffffffffffffffffffffffffffff16611efa84610b7d565b73ffffffffffffffffffffffffffffffffffffffff16145b80611f235750611f228185611d91565b5b91505092915050565b8173ffffffffffffffffffffffffffffffffffffffff16611f4c826115b0565b73ffffffffffffffffffffffffffffffffffffffff16141515611f6e57600080fd5b600073ffffffffffffffffffffffffffffffffffffffff166002600083815260200190815260200160002060009054906101000a900473ffffffffffffffffffffffffffffffffffffffff1673ffffffffffffffffffffffffffffffffffffffff1614151561202b5760006002600083815260200190815260200160002060006101000a81548173ffffffffffffffffffffffffffffffffffffffff021916908373ffffffffffffffffffffffffffffffffffffffff1602179055505b5050565b8173ffffffffffffffffffffffffffffffffffffffff1661204f826115b0565b73ffffffffffffffffffffffffffffffffffffffff1614151561207157600080fd5b6120c46001600360008573ffffffffffffffffffffffffffffffffffffffff1673ffffffffffffffffffffffffffffffffffffffff1681526020019081526020016000205461258090919063ffffffff16565b600360008473ffffffffffffffffffffffffffffffffffffffff1673ffffffffffffffffffffffffffffffffffffffff1681526020019081526020016000208190555060006001600083815260200190815260200160002060006101000a81548173ffffffffffffffffffffffffffffffffffffffff021916908373ffffffffffffffffffffffffffffffffffffffff1602179055505050565b600073ffffffffffffffffffffffffffffffffffffffff166001600083815260200190815260200160002060009054906101000a900473ffffffffffffffffffffffffffffffffffffffff1673ffffffffffffffffffffffffffffffffffffffff161415156121cc57600080fd5b816001600083815260200190815260200160002060006101000a81548173ffffffffffffffffffffffffffffffffffffffff021916908373ffffffffffffffffffffffffffffffffffffffff1602179055506122716001600360008573ffffffffffffffffffffffffffffffffffffffff1673ffffffffffffffffffffffffffffffffffffffff168152602001908152602001600020546125a190919063ffffffff16565b600360008473ffffffffffffffffffffffffffffffffffffffff1673ffffffffffffffffffffffffffffffffffffffff168152602001908152602001600020819055505050565b600073ffffffffffffffffffffffffffffffffffffffff168273ffffffffffffffffffffffffffffffffffffffff16141515156122f457600080fd5b6122fe828261215e565b808273ffffffffffffffffffffffffffffffffffffffff16600073ffffffffffffffffffffffffffffffffffffffff167fddf252ad1be2c89b69c2b068fc378daa952ba7f163c4a11628f55a4df523b3ef60405160405180910390a45050565b6000806123808573ffffffffffffffffffffffffffffffffffffffff166125c2565b151561238f5760019150612577565b8473ffffffffffffffffffffffffffffffffffffffff1663150b7a02338887876040518563ffffffff167c0100000000000000000000000000000000000000000000000000000000028152600401808573ffffffffffffffffffffffffffffffffffffffff1673ffffffffffffffffffffffffffffffffffffffff1681526020018473ffffffffffffffffffffffffffffffffffffffff1673ffffffffffffffffffffffffffffffffffffffff16815260200183815260200180602001828103825283818151815260200191508051906020019080838360005b83811015612484578082015181840152602081019050612469565b50505050905090810190601f1680156124b15780820380516001836020036101000a031916815260200191505b5095505050505050602060405180830381600087803b1580156124d357600080fd5b505af11580156124e7573d6000803e3d6000fd5b505050506040513d60208110156124fd57600080fd5b8101908080519060200190929190505050905063150b7a027c0100000000000000000000000000000000000000000000000000000000027bffffffffffffffffffffffffffffffffffffffffffffffffffffffff1916817bffffffffffffffffffffffffffffffffffffffffffffffffffffffff19161491505b50949350505050565b60008083831115151561259257600080fd5b82840390508091505092915050565b60008082840190508381101515156125b857600080fd5b8091505092915050565b600080823b905060008111915050919050565b60a06040519081016040528060608152602001606081526020016060815260200160608152602001606081525090565b828054600181600116156101000203166002900490600052602060002090601f016020900481019282601f1061264657805160ff1916838001178555612674565b82800160010185558215612674579182015b82811115612673578251825591602001919060010190612658565b5b5090506126819190612685565b5090565b6126a791905b808211156126a357600081600090555060010161268b565b5090565b905600a165627a7a72305820df3e9a6c7b432e5386cc72d56e7dd4653adb23b6a85bfe7c66f0244bec37378e0029",
  "source": "pragma solidity ^0.4.23;\n\nimport 'openzeppelin-solidity/contracts/token/ERC721/ERC721.sol';\n\ncontract StarNotary is ERC721 {\n\n    struct Star {\n        string name;\n        string starStory;\n        string ra;\n        string dec;\n        string mag;\n    }\n\n    mapping(uint256 => Star) public tokenIdToStarInfo;\n    mapping(bytes32 => bool) public uniqueStars;\n    mapping(uint256 => uint256) public starsForSale;\n\n    function createStar(string _name, string _starStory, string _ra, string _dec, string _mag, uint256 _tokenId) public {\n        require(bytes(_name).length > 0, \"Required star name.\");\n        require(bytes(_starStory).length > 0, \"Required star story.\");\n        require(bytes(_ra).length > 0, \"Required star ra.\");\n        require(bytes(_dec).length > 0, \"Required star dec.\");\n        require(bytes(_mag).length > 0, \"Required star mag.\");\n        require(!checkIfStarExists(_ra, _dec, _mag), \"This star already exists.\");\n\n        // register star\n        Star memory newStar = Star(_name, _starStory, _ra, _dec, _mag);\n        tokenIdToStarInfo[_tokenId] = newStar;\n\n        // handle uniquness\n        bytes32 hash = keccak256(abi.encodePacked(_ra, _dec, _mag));\n        uniqueStars[hash] = true;\n\n        _mint(msg.sender, _tokenId);\n    }\n\n    function checkIfStarExists(string _ra, string _dec, string _mag) public view returns (bool) {\n        bytes32 hash = keccak256(abi.encodePacked(_ra, _dec, _mag));\n        return uniqueStars[hash] == true;\n    }\n\n    function putStarUpForSale(uint256 _tokenId, uint256 _price) public {\n        require(this.ownerOf(_tokenId) == msg.sender);\n\n        starsForSale[_tokenId] = _price;\n    }\n\n    function buyStar(uint256 _tokenId) public payable {\n        require(starsForSale[_tokenId] > 0);\n\n        uint256 starCost = starsForSale[_tokenId];\n        address starOwner = this.ownerOf(_tokenId);\n        require(msg.value >= starCost);\n\n        _removeTokenFrom(starOwner, _tokenId);\n        _addTokenTo(msg.sender, _tokenId);\n\n        starOwner.transfer(starCost);\n\n        if (msg.value > starCost) {\n            msg.sender.transfer(msg.value - starCost);\n        }\n    }\n}",
  "sourcePath": "C:\\work\\mooc\\blockchain\\p5-sc\\project_5\\smart_contracts\\contracts\\StarNotary.sol",
  "compiler": {
    "name": "solc",
    "version": "0.4.24+commit.e67f0147.Emscripten.clang"
  },
  "schemaVersion": "2.0.1",
  "updatedAt": "2018-12-04T14:10:19.718Z"
}